{
  "contractName": "DecentralBank",
  "abi": [
    {
      "inputs": [
        {
          "internalType": "contract Tether",
          "name": "_tether",
          "type": "address"
        },
        {
          "internalType": "contract RWD",
          "name": "_rwd",
          "type": "address"
        }
      ],
      "stateMutability": "nonpayable",
      "type": "constructor"
    },
    {
      "inputs": [
        {
          "internalType": "address",
          "name": "",
          "type": "address"
        }
      ],
      "name": "hasStaked",
      "outputs": [
        {
          "internalType": "bool",
          "name": "",
          "type": "bool"
        }
      ],
      "stateMutability": "view",
      "type": "function",
      "constant": true
    },
    {
      "inputs": [
        {
          "internalType": "address",
          "name": "",
          "type": "address"
        }
      ],
      "name": "isStaked",
      "outputs": [
        {
          "internalType": "bool",
          "name": "",
          "type": "bool"
        }
      ],
      "stateMutability": "view",
      "type": "function",
      "constant": true
    },
    {
      "inputs": [],
      "name": "name",
      "outputs": [
        {
          "internalType": "string",
          "name": "",
          "type": "string"
        }
      ],
      "stateMutability": "view",
      "type": "function",
      "constant": true
    },
    {
      "inputs": [],
      "name": "owner",
      "outputs": [
        {
          "internalType": "address",
          "name": "",
          "type": "address"
        }
      ],
      "stateMutability": "view",
      "type": "function",
      "constant": true
    },
    {
      "inputs": [],
      "name": "rwd",
      "outputs": [
        {
          "internalType": "contract RWD",
          "name": "",
          "type": "address"
        }
      ],
      "stateMutability": "view",
      "type": "function",
      "constant": true
    },
    {
      "inputs": [
        {
          "internalType": "uint256",
          "name": "",
          "type": "uint256"
        }
      ],
      "name": "stakers",
      "outputs": [
        {
          "internalType": "address",
          "name": "",
          "type": "address"
        }
      ],
      "stateMutability": "view",
      "type": "function",
      "constant": true
    },
    {
      "inputs": [
        {
          "internalType": "address",
          "name": "",
          "type": "address"
        }
      ],
      "name": "stakingBalance",
      "outputs": [
        {
          "internalType": "uint256",
          "name": "",
          "type": "uint256"
        }
      ],
      "stateMutability": "view",
      "type": "function",
      "constant": true
    },
    {
      "inputs": [],
      "name": "tether",
      "outputs": [
        {
          "internalType": "contract Tether",
          "name": "",
          "type": "address"
        }
      ],
      "stateMutability": "view",
      "type": "function",
      "constant": true
    },
    {
      "inputs": [
        {
          "internalType": "uint256",
          "name": "_amount",
          "type": "uint256"
        }
      ],
      "name": "depositTokens",
      "outputs": [],
      "stateMutability": "nonpayable",
      "type": "function"
    },
    {
      "inputs": [],
      "name": "issueTokens",
      "outputs": [],
      "stateMutability": "nonpayable",
      "type": "function"
    },
    {
      "inputs": [],
      "name": "unstakeTokens",
      "outputs": [],
      "stateMutability": "nonpayable",
      "type": "function"
    }
  ],
  "bytecode": "0x60806040526040518060400160405280600e81526020017f446563656e7472616c2042616e6b00000000000000000000000000000000000081525060019080519060200190620000519291906200014f565b503480156200005f57600080fd5b5060405162001445380380620014458339818101604052810190620000859190620002c2565b81600260006101000a81548173ffffffffffffffffffffffffffffffffffffffff021916908373ffffffffffffffffffffffffffffffffffffffff16021790555080600360006101000a81548173ffffffffffffffffffffffffffffffffffffffff021916908373ffffffffffffffffffffffffffffffffffffffff160217905550336000806101000a81548173ffffffffffffffffffffffffffffffffffffffff021916908373ffffffffffffffffffffffffffffffffffffffff16021790555050506200036d565b8280546200015d9062000338565b90600052602060002090601f016020900481019282620001815760008555620001cd565b82601f106200019c57805160ff1916838001178555620001cd565b82800160010185558215620001cd579182015b82811115620001cc578251825591602001919060010190620001af565b5b509050620001dc9190620001e0565b5090565b5b80821115620001fb576000816000905550600101620001e1565b5090565b600080fd5b600073ffffffffffffffffffffffffffffffffffffffff82169050919050565b6000620002318262000204565b9050919050565b6000620002458262000224565b9050919050565b620002578162000238565b81146200026357600080fd5b50565b60008151905062000277816200024c565b92915050565b60006200028a8262000224565b9050919050565b6200029c816200027d565b8114620002a857600080fd5b50565b600081519050620002bc8162000291565b92915050565b60008060408385031215620002dc57620002db620001ff565b5b6000620002ec8582860162000266565b9250506020620002ff85828601620002ab565b9150509250929050565b7f4e487b7100000000000000000000000000000000000000000000000000000000600052602260045260246000fd5b600060028204905060018216806200035157607f821691505b60208210810362000367576200036662000309565b5b50919050565b6110c8806200037d6000396000f3fe608060405234801561001057600080fd5b50600436106100a95760003560e01c80636177fd18116100715780636177fd18146101425780638da5cb5b14610172578063a5ce413b14610190578063c93c8f341461019a578063dd49756e146101ca578063fd5e6dd1146101e6576100a9565b806306fdde03146100ae5780631a8972d3146100cc57806345bc78ab146100ea5780635efc071a1461011a57806360ab585214610138575b600080fd5b6100b6610216565b6040516100c39190610a98565b60405180910390f35b6100d46102a4565b6040516100e19190610b39565b60405180910390f35b61010460048036038101906100ff9190610b97565b6102ca565b6040516101119190610bdd565b60405180910390f35b6101226102e2565b60405161012f9190610c19565b60405180910390f35b610140610308565b005b61015c60048036038101906101579190610b97565b6104f0565b6040516101699190610c4f565b60405180910390f35b61017a610510565b6040516101879190610c79565b60405180910390f35b610198610534565b005b6101b460048036038101906101af9190610b97565b6106fc565b6040516101c19190610c4f565b60405180910390f35b6101e460048036038101906101df9190610cc0565b61071c565b005b61020060048036038101906101fb9190610cc0565b6109c0565b60405161020d9190610c79565b60405180910390f35b6001805461022390610d1c565b80601f016020809104026020016040519081016040528092919081815260200182805461024f90610d1c565b801561029c5780601f106102715761010080835404028352916020019161029c565b820191906000526020600020905b81548152906001019060200180831161027f57829003601f168201915b505050505081565b600360009054906101000a900473ffffffffffffffffffffffffffffffffffffffff1681565b60056020528060005260406000206000915090505481565b600260009054906101000a900473ffffffffffffffffffffffffffffffffffffffff1681565b60008054906101000a900473ffffffffffffffffffffffffffffffffffffffff1673ffffffffffffffffffffffffffffffffffffffff163373ffffffffffffffffffffffffffffffffffffffff1614610396576040517f08c379a000000000000000000000000000000000000000000000000000000000815260040161038d90610d99565b60405180910390fd5b60005b6004805490508110156104ed576000600482815481106103bc576103bb610db9565b5b9060005260206000200160009054906101000a900473ffffffffffffffffffffffffffffffffffffffff1690506000600560008373ffffffffffffffffffffffffffffffffffffffff1673ffffffffffffffffffffffffffffffffffffffff16815260200190815260200160002054905060008111156104d857600360009054906101000a900473ffffffffffffffffffffffffffffffffffffffff1673ffffffffffffffffffffffffffffffffffffffff1663a9059cbb83836040518363ffffffff1660e01b8152600401610493929190610de8565b6020604051808303816000875af11580156104b2573d6000803e3d6000fd5b505050506040513d601f19601f820116820180604052508101906104d69190610e3d565b505b505080806104e590610e99565b915050610399565b50565b60076020528060005260406000206000915054906101000a900460ff1681565b60008054906101000a900473ffffffffffffffffffffffffffffffffffffffff1681565b6000600560003373ffffffffffffffffffffffffffffffffffffffff1673ffffffffffffffffffffffffffffffffffffffff168152602001908152602001600020549050600081116105bb576040517f08c379a00000000000000000000000000000000000000000000000000000000081526004016105b290610f53565b60405180910390fd5b600260009054906101000a900473ffffffffffffffffffffffffffffffffffffffff1673ffffffffffffffffffffffffffffffffffffffff1663a9059cbb33836040518363ffffffff1660e01b8152600401610618929190610de8565b6020604051808303816000875af1158015610637573d6000803e3d6000fd5b505050506040513d601f19601f8201168201806040525081019061065b9190610e3d565b506000600560003373ffffffffffffffffffffffffffffffffffffffff1673ffffffffffffffffffffffffffffffffffffffff168152602001908152602001600020819055506000600760003373ffffffffffffffffffffffffffffffffffffffff1673ffffffffffffffffffffffffffffffffffffffff16815260200190815260200160002060006101000a81548160ff02191690831515021790555050565b60066020528060005260406000206000915054906101000a900460ff1681565b6000811161075f576040517f08c379a000000000000000000000000000000000000000000000000000000000815260040161075690610fe5565b60405180910390fd5b600260009054906101000a900473ffffffffffffffffffffffffffffffffffffffff1673ffffffffffffffffffffffffffffffffffffffff166323b872dd3330846040518463ffffffff1660e01b81526004016107be93929190611005565b6020604051808303816000875af11580156107dd573d6000803e3d6000fd5b505050506040513d601f19601f820116820180604052508101906108019190610e3d565b5080600560003373ffffffffffffffffffffffffffffffffffffffff1673ffffffffffffffffffffffffffffffffffffffff1681526020019081526020016000206000828254610851919061103c565b92505081905550600660003373ffffffffffffffffffffffffffffffffffffffff1673ffffffffffffffffffffffffffffffffffffffff16815260200190815260200160002060009054906101000a900460ff1661090d576004339080600181540180825580915050600190039060005260206000200160009091909190916101000a81548173ffffffffffffffffffffffffffffffffffffffff021916908373ffffffffffffffffffffffffffffffffffffffff1602179055505b6001600660003373ffffffffffffffffffffffffffffffffffffffff1673ffffffffffffffffffffffffffffffffffffffff16815260200190815260200160002060006101000a81548160ff0219169083151502179055506001600760003373ffffffffffffffffffffffffffffffffffffffff1673ffffffffffffffffffffffffffffffffffffffff16815260200190815260200160002060006101000a81548160ff02191690831515021790555050565b600481815481106109d057600080fd5b906000526020600020016000915054906101000a900473ffffffffffffffffffffffffffffffffffffffff1681565b600081519050919050565b600082825260208201905092915050565b60005b83811015610a39578082015181840152602081019050610a1e565b83811115610a48576000848401525b50505050565b6000601f19601f8301169050919050565b6000610a6a826109ff565b610a748185610a0a565b9350610a84818560208601610a1b565b610a8d81610a4e565b840191505092915050565b60006020820190508181036000830152610ab28184610a5f565b905092915050565b600073ffffffffffffffffffffffffffffffffffffffff82169050919050565b6000819050919050565b6000610aff610afa610af584610aba565b610ada565b610aba565b9050919050565b6000610b1182610ae4565b9050919050565b6000610b2382610b06565b9050919050565b610b3381610b18565b82525050565b6000602082019050610b4e6000830184610b2a565b92915050565b600080fd5b6000610b6482610aba565b9050919050565b610b7481610b59565b8114610b7f57600080fd5b50565b600081359050610b9181610b6b565b92915050565b600060208284031215610bad57610bac610b54565b5b6000610bbb84828501610b82565b91505092915050565b6000819050919050565b610bd781610bc4565b82525050565b6000602082019050610bf26000830184610bce565b92915050565b6000610c0382610b06565b9050919050565b610c1381610bf8565b82525050565b6000602082019050610c2e6000830184610c0a565b92915050565b60008115159050919050565b610c4981610c34565b82525050565b6000602082019050610c646000830184610c40565b92915050565b610c7381610b59565b82525050565b6000602082019050610c8e6000830184610c6a565b92915050565b610c9d81610bc4565b8114610ca857600080fd5b50565b600081359050610cba81610c94565b92915050565b600060208284031215610cd657610cd5610b54565b5b6000610ce484828501610cab565b91505092915050565b7f4e487b7100000000000000000000000000000000000000000000000000000000600052602260045260246000fd5b60006002820490506001821680610d3457607f821691505b602082108103610d4757610d46610ced565b5b50919050565b7f63616c6c6572206d75737420626520746865206f776e65720000000000000000600082015250565b6000610d83601883610a0a565b9150610d8e82610d4d565b602082019050919050565b60006020820190508181036000830152610db281610d76565b9050919050565b7f4e487b7100000000000000000000000000000000000000000000000000000000600052603260045260246000fd5b6000604082019050610dfd6000830185610c6a565b610e0a6020830184610bce565b9392505050565b610e1a81610c34565b8114610e2557600080fd5b50565b600081519050610e3781610e11565b92915050565b600060208284031215610e5357610e52610b54565b5b6000610e6184828501610e28565b91505092915050565b7f4e487b7100000000000000000000000000000000000000000000000000000000600052601160045260246000fd5b6000610ea482610bc4565b91507fffffffffffffffffffffffffffffffffffffffffffffffffffffffffffffffff8203610ed657610ed5610e6a565b5b600182019050919050565b7f7374616b696e672062616c616e63652073686f756c642062652067726561746560008201527f72207468616e2030000000000000000000000000000000000000000000000000602082015250565b6000610f3d602883610a0a565b9150610f4882610ee1565b604082019050919050565b60006020820190508181036000830152610f6c81610f30565b9050919050565b7f616d6f756e742063616e6e6f74206265207a65726f206f72206e65676174697660008201527f6500000000000000000000000000000000000000000000000000000000000000602082015250565b6000610fcf602183610a0a565b9150610fda82610f73565b604082019050919050565b60006020820190508181036000830152610ffe81610fc2565b9050919050565b600060608201905061101a6000830186610c6a565b6110276020830185610c6a565b6110346040830184610bce565b949350505050565b600061104782610bc4565b915061105283610bc4565b9250827fffffffffffffffffffffffffffffffffffffffffffffffffffffffffffffffff0382111561108757611086610e6a565b5b82820190509291505056fea2646970667358221220d70a102f21043707fd2ac2a307cb18325146d91c0e608696342aa8d63058336a64736f6c634300080e0033",
  "immutableReferences": {},
  "source": "// SPDX-License-Identifier: MIT\r\npragma solidity >=0.4.22 <0.9.0;\r\n\r\nimport './Tether.sol';\r\nimport './RWD.sol';\r\n\r\ncontract DecentralBank {\r\n    address public owner;\r\n    string public name = \"Decentral Bank\";\r\n    Tether public tether;\r\n    RWD public rwd;\r\n\r\n    address[] public stakers;\r\n\r\n    mapping(address => uint256) public stakingBalance;\r\n    mapping(address => bool) public hasStaked;\r\n    mapping(address => bool) public isStaked;\r\n\r\n\r\n    constructor(Tether _tether,RWD _rwd) public{\r\n        tether = _tether;\r\n        rwd = _rwd;\r\n        owner = msg.sender;\r\n    }\r\n\r\n    function depositTokens(uint _amount) public {\r\n        require(_amount > 0,\"amount cannot be zero or negative\");\r\n        //transfer Tether tokens to this contract address for staking\r\n        tether.transferFrom(msg.sender,address(this),_amount);\r\n\r\n        // Update staking balance\r\n        stakingBalance[msg.sender] += _amount;\r\n\r\n        if(!hasStaked[msg.sender]){\r\n            stakers.push(msg.sender);\r\n        }\r\n\r\n        hasStaked[msg.sender] = true;\r\n        isStaked[msg.sender] = true;\r\n\r\n    }\r\n\r\n    //issue tokens \r\n    function issueTokens() public {\r\n        //only the owner can issue tokens\r\n        require(msg.sender == owner,'caller must be the owner');\r\n\r\n        for(uint i=0;i<stakers.length;i++){\r\n            address recipient = stakers[i];\r\n            uint rewardBalance = stakingBalance[recipient];\r\n\r\n            if(rewardBalance > 0){\r\n                rwd.transfer(recipient,rewardBalance);\r\n            }\r\n        }\r\n    }\r\n\r\n    //unstake tokens\r\n    function unstakeTokens() public {\r\n        uint balance = stakingBalance[msg.sender];\r\n        require(balance > 0,'staking balance should be greater than 0');\r\n\r\n        //transfer the tokens back to the customer from our contract\r\n        tether.transfer(msg.sender,balance);\r\n\r\n        //update customer staking information\r\n        stakingBalance[msg.sender] =  0;\r\n        isStaked[msg.sender] = false;\r\n    }\r\n}",
  "sourcePath": "D:\\Projects\\Etherium Dev\\Defi_Staking_App\\src\\contracts\\DecentralBank.sol",
  "compiler": {
    "name": "solc",
    "version": "0.8.14+commit.80d49f37.Emscripten.clang"
  },
  "schemaVersion": "3.4.7",
  "updatedAt": "2022-07-09T07:36:45.510Z",
  "networkType": "ethereum",
  "devdoc": {
    "kind": "dev",
    "methods": {},
    "version": 1
  },
  "userdoc": {
    "kind": "user",
    "methods": {},
    "version": 1
  }
}